{
  "_format": "hh-sol-artifact-1",
  "contractName": "PrivateComparator",
  "sourceName": "contracts/PrivateComparator.sol",
  "abi": [
    {
      "inputs": [],
      "name": "isAEqual",
      "outputs": [
        {
          "internalType": "ebool",
          "name": "",
          "type": "bytes32"
        }
      ],
      "stateMutability": "nonpayable",
      "type": "function"
    },
    {
      "inputs": [],
      "name": "isAGreater",
      "outputs": [
        {
          "internalType": "ebool",
          "name": "",
          "type": "bytes32"
        }
      ],
      "stateMutability": "nonpayable",
      "type": "function"
    },
    {
      "inputs": [],
      "name": "isALess",
      "outputs": [
        {
          "internalType": "ebool",
          "name": "",
          "type": "bytes32"
        }
      ],
      "stateMutability": "nonpayable",
      "type": "function"
    },
    {
      "inputs": [
        {
          "internalType": "externalEuint32",
          "name": "extA",
          "type": "bytes32"
        },
        {
          "internalType": "externalEuint32",
          "name": "extB",
          "type": "bytes32"
        },
        {
          "internalType": "bytes",
          "name": "proofA",
          "type": "bytes"
        },
        {
          "internalType": "bytes",
          "name": "proofB",
          "type": "bytes"
        }
      ],
      "name": "setValues",
      "outputs": [],
      "stateMutability": "nonpayable",
      "type": "function"
    }
  ],
  "bytecode": "0x608060405234801561000f575f80fd5b5061018a6100ae604080516080810182525f80825260208201819052918101829052606081019190915250604080516080810182527350157cffd6bbfa2dece204a89ec419c23ef5755d815273cd3ab3bd6bcc0c0bf3e27912a92043e817b1cf696020820152731364cbbf2cdf5032c47d8226a6f6fbd2afcdacac9181019190915273901f8942346f7ab3a01f6d7613119bca447bb030606082015290565b80517fed8d60e34876f751cc8b014c560745351147d9de11b9347c854e881b128ea60080546001600160a01b03199081166001600160a01b039384161790915560208301517fed8d60e34876f751cc8b014c560745351147d9de11b9347c854e881b128ea6018054831691841691909117905560408301517fed8d60e34876f751cc8b014c560745351147d9de11b9347c854e881b128ea6028054831691841691909117905560608301517fed8d60e34876f751cc8b014c560745351147d9de11b9347c854e881b128ea6038054909216921691909117905550565b7f5ea69329017273582817d320489fbd94f775580e90c092699ca6f3d12fdf7d0080546001600160a01b03191673a02cda4ca3a71d7c46997716f4283aa851c28812179055610786806101dc5f395ff3fe608060405234801561000f575f80fd5b506004361061004a575f3560e01c80632663dbb61461004e5780636384aa5414610068578063804737831461007d578063b08c2fe314610085575b5f80fd5b61005661008d565b60405190815260200160405180910390f35b61007b61007636600461063f565b6100a0565b005b61005661012e565b61005661013c565b5f61009b5f5460015461014a565b905090565b6100df8685858080601f0160208091040260200160405190810160405280939291908181526020018383808284375f9201919091525061017f92505050565b5f819055506101238583838080601f0160208091040260200160405190810160405280939291908181526020018383808284375f9201919091525061017f92505050565b600155505050505050565b5f61009b5f5460015461018c565b5f61009b5f546001546101ba565b5f8261015c576101595f6101e8565b92505b8161016d5761016a5f6101e8565b91505b61017883835f610200565b9392505050565b5f610178838360046102e3565b5f8261019e5761019b5f6101e8565b92505b816101af576101ac5f6101e8565b91505b61017883835f610403565b5f826101cc576101c95f6101e8565b92505b816101dd576101da5f6101e8565b91505b61017883835f6104a0565b5f6101fa8263ffffffff16600461053d565b92915050565b5f8082156102135750600160f81b610216565b505f5b7fed8d60e34876f751cc8b014c560745351147d9de11b9347c854e881b128ea60154604051637210768160e01b815260048101879052602481018690526001600160f81b0319831660448201527fed8d60e34876f751cc8b014c560745351147d9de11b9347c854e881b128ea600916001600160a01b0316906372107681906064015b6020604051808303815f875af11580156102b5573d5f803e3d5ffd5b505050506040513d601f19601f820116820180604052508101906102d991906106bc565b9695505050505050565b7fed8d60e34876f751cc8b014c560745351147d9de11b9347c854e881b128ea6015460405163196d0b9b60e01b81525f917fed8d60e34876f751cc8b014c560745351147d9de11b9347c854e881b128ea600916001600160a01b039091169063196d0b9b9061035c9088903390899089906004016106f3565b6020604051808303815f875af1158015610378573d5f803e3d5ffd5b505050506040513d601f19601f8201168201806040525081019061039c91906106bc565b8154604051630f8e573b60e21b8152600481018390523360248201529193506001600160a01b031690633e395cec906044015f604051808303815f87803b1580156103e5575f80fd5b505af11580156103f7573d5f803e3d5ffd5b50505050509392505050565b5f8082156104165750600160f81b610419565b505f5b7fed8d60e34876f751cc8b014c560745351147d9de11b9347c854e881b128ea601546040516385362ee760e01b815260048101879052602481018690526001600160f81b0319831660448201527fed8d60e34876f751cc8b014c560745351147d9de11b9347c854e881b128ea600916001600160a01b0316906385362ee790606401610299565b5f8082156104b35750600160f81b6104b6565b505f5b7fed8d60e34876f751cc8b014c560745351147d9de11b9347c854e881b128ea6015460405163f77f3f1d60e01b815260048101879052602481018690526001600160f81b0319831660448201527fed8d60e34876f751cc8b014c560745351147d9de11b9347c854e881b128ea600916001600160a01b03169063f77f3f1d90606401610299565b7fed8d60e34876f751cc8b014c560745351147d9de11b9347c854e881b128ea60154604051639cd07acb60e01b81525f917fed8d60e34876f751cc8b014c560745351147d9de11b9347c854e881b128ea600916001600160a01b0390911690639cd07acb906105b29087908790600401610765565b6020604051808303815f875af11580156105ce573d5f803e3d5ffd5b505050506040513d601f19601f820116820180604052508101906105f291906106bc565b949350505050565b5f8083601f84011261060a575f80fd5b50813567ffffffffffffffff811115610621575f80fd5b602083019150836020828501011115610638575f80fd5b9250929050565b5f805f805f8060808789031215610654575f80fd5b8635955060208701359450604087013567ffffffffffffffff80821115610679575f80fd5b6106858a838b016105fa565b9096509450606089013591508082111561069d575f80fd5b506106aa89828a016105fa565b979a9699509497509295939492505050565b5f602082840312156106cc575f80fd5b5051919050565b605481106106ef57634e487b7160e01b5f52602160045260245ffd5b9052565b8481525f60206001600160a01b03861660208401526080604084015284518060808501525f5b818110156107355786810183015185820160a001528201610719565b505f60a0828601015260a0601f19601f8301168501019250505061075c60608301846106d3565b95945050505050565b8281526040810161017860208301846106d356fea164736f6c6343000818000a",
  "linkReferences": {},
  "deployedLinkReferences": {}
}